:100000007BC0000096C0000094C0000092C00000B9
:1000100090C000008EC000008CC000008AC00000AC
:1000200088C0000086C0000084C0000082C00000BC
:1000300080C000007EC000007CC000007AC00000CC
:1000400078C0000076C0000074C0000072C00000DC
:1000500070C000006EC000006CC000006AC00000EC
:1000600068C0000066C0000064C0000062C00000FC
:1000700060C000005EC000005CC000005AC000000C
:1000800058C0000056C0000054C0000052C000001C
:1000900050C000004EC000004CC000004AC000002C
:1000A00048C0000046C00000C8C1000042C00000B7
:1000B00040C000003EC000003CC000003AC000004C
:1000C00038C0000036C0000034C0000032C000005C
:1000D00030C000002EC000002CC000002AC000006C
:1000E00028C00000840187018A018D0190019301DD
:1000F000960199019C019F0111241FBECFEFD1E20F
:10010000DEBFCDBF22E0A6E0B2E001C01D92AE305E
:10011000B207E1F712E0A0E0B2E0ECECFAE000E0B8
:100120000BBF02C007900D92A630B107D9F73CD2A1
:10013000CBC466CF0F931F93CF93DF9300D000D033
:10014000CDB7DEB79C838B83109208021092090210
:1001500080910602909107022ED480910902882F87
:1001600090E091D390930702809306021A8219823D
:1001700042C08B819C81892B09F443C020910602E7
:100180003091070289819A818901080F191F4B81DB
:100190005C819A01ADECBCEC67D3969587959695FA
:1001A000879596958795880F991F9C01220F331F7D
:1001B000220F331F820F931F9A01281B390BC9018D
:1001C00089D0F80180838B819C819C01ADECBCECD3
:1001D0004BD39695879596958795969587959C830D
:1001E0008B83809109028F5F8093090289819A81B4
:1001F00001969A83898389819A8104970CF4B9CFF7
:1002000001C0000000000F900F900F900F90DF9141
:10021000CF911F910F910895CF93DF93CDB7DEB7A4
:1002200029970FB6F894DEBF0FBECDBF6D837E83D6
:100230008F83988749871A82198214C020E030E0A2
:1002400040E251E46D817E818F819885A1D2DC01ED
:10025000CB018D839E83AF83B88789819A81019674
:100260009A8389838985282F30E089819A81821732
:10027000930724F320E030E040E05FE36D817E816E
:100280008F8198859FD1DC01CB01BC01CD01FED1CE
:10029000DC01CB019C838B838B819C814BDF898527
:1002A000882371F020910602309107028985882FFA
:1002B00090E0820F931FFC0120812F5FFC012083BF
:1002C000000029960FB6F894DEBF0FBECDBFDF91B8
:1002D000CF910895CF93DF9300D0CDB7DEB78A8357
:1002E0008A81882F90E0092E000CAA0BBB0B40E0FE
:1002F00050E029E030E0841B950B2817390710F1F6
:100300008E589F4FFC01A7C28CEF89831EC080E6E8
:1003100089831BC08AED898318C082EF898315C049
:1003200086E6898312C086EB89830FC08EEB8983B2
:100330000CC080EE898309C08EEF898306C086EFEA
:10034000898303C08CEF8983000089810F900F900F
:10035000DF91CF910895CF93DF93CDB7DEB784E2DD
:1003600090E024E230E0F90120812E60FC0120833E
:1003700087E091E027E031E0F90120812860FC016D
:10038000208385E290E025E230E0F90120812860B9
:10039000FC0120838AE091E02FE0FC01208304D05F
:1003A0000000DF91CF910895CF93DF93CDB7DEB7F3
:1003B00080EA90E0FC01108281EA90E0FC0110826A
:1003C00088EA90E02FE930E0FC013183208384EA61
:1003D00090E0FC011182108281EA90E021EA30E095
:1003E000F90120812460FC01208381EA90E021EA68
:1003F00030E0F90120812D7FFC01208381EA90E02B
:1004000021EA30E0F90120812E7FFC01208381EA7E
:1004100090E021EA30E0F90120812860FC0120838E
:1004200082E790E022E730E0F90120812260FC01C0
:1004300020830000DF91CF9108951F920F920090CA
:100440005F000F92112400905B000F922F933F9357
:100450004F935F936F938F939F93EF93FF93CF93FC
:10046000DF9300D0CDB7DEB7F8941A82198242C06C
:10047000209106023091070280910802882F90E0B7
:10048000820F931FFC018081882F90E0098002C0B9
:10049000959587950A94E2F781709927892B51F0F9
:1004A00085E290E025E230E0F90120812460FC0142
:1004B000208309C085E290E025E230E0F901208147
:1004C0002B7FFC01208385E290E025E230E0F901FA
:1004D00020812260FC01208385E290E025E230E06B
:1004E000F90120812D7FFC01208389819A81019669
:1004F0009A83898389819A8108970CF4B9CF8BE01C
:1005000091E02BE031E0F9012081207FFC01208384
:100510008BE091E02BE031E0F9012081622F209106
:100520000802422F50E021E030E002C0220F331FCA
:100530004A95E2F7262BFC01208388E091E028E031
:1005400031E0F90120812860FC01208388E091E0FE
:1005500028E031E0F9012081277FFC012083809190
:1005600008028F5F8093080290910802809109022F
:10057000981711F410920802789400000F900F90D1
:10058000DF91CF91FF91EF919F918F916F915F914B
:100590004F913F912F910F9000925B000F9000922E
:1005A0005F000F901F901895CF93DF93CDB7DEB704
:1005B000D2DE42E063E373E380E292E42DDE7894DE
:1005C000FFCF5058BB27AA270ED0A8C099D030F033
:1005D0009ED020F031F49F3F11F41EF48EC00EF433
:1005E000E095E7FB84C0E92FAAD080F3BA17620731
:1005F00073078407950718F071F49EF5C2C00EF4D6
:10060000E0950B2EBA2FA02D0B01B90190010C0122
:10061000CA01A0011124FF27591B99F0593F50F43A
:10062000503E68F11A16F040A22F232F342F442792
:10063000585FF3CF469537952795A795F04053958A
:10064000C9F77EF41F16BA0B620B730B840BBAF05A
:100650009150A1F0FF0FBB1F661F771F881FC2F7C5
:100660000EC0BA0F621F731F841F48F487957795D9
:100670006795B795F7959E3F08F0B3CF9395880F90
:1006800008F09927EE0F97958795089504D0689400
:10069000B11178C008955BD088F09F5790F0B92FC2
:1006A0009927B751A0F0D1F0660F771F881F991FC7
:1006B0001AF0BA95C9F712C0B13081F062D0B1E03A
:1006C00008955FC0672F782F8827B85F39F0B93F4A
:1006D000CCF3869577956795B395D9F73EF49095C9
:1006E0008095709561957F4F8F4F9F4F089597F933
:1006F0009F6780E870E060E008959FEF80EC0895C8
:1007000000240A94161617061806090608950024F0
:100710000A9412161306140605060895092E03946A
:10072000000C11F4882352F0BB0F40F4BF2B11F4DE
:1007300060FF04C06F5F7F4F8F4F9F4F089557FD3D
:100740009058440F551F59F05F3F71F04795880F3F
:1007500097FB991F61F09F3F79F0879508951216D6
:1007600013061406551FF2CF4695F1DF08C0161682
:1007700017061806991FF1CF869571056105089433
:100780000895E894BB2766277727CB0197F908954A
:100790000BD0C4CFB5DF28F0BADF18F0952309F0ED
:1007A000A6CFABCF1124EECFCADFA0F3959FD1F334
:1007B000950F50E0551F629FF001729FBB27F00D0F
:1007C000B11D639FAA27F00DB11DAA1F649F662764
:1007D000B00DA11D661F829F2227B00DA11D621FB3
:1007E000739FB00DA11D621F839FA00D611D221F6D
:1007F000749F3327A00D611D231F849F600D211D51
:10080000822F762F6A2F11249F5750408AF0E1F0F3
:1008100088234AF0EE0FFF1FBB1F661F771F881F3C
:1008200091505040A9F79E3F510570F060CFAACF7C
:100830005F3FECF3983EDCF3869577956795B79527
:10084000F795E7959F5FC1F7FE2B880F911D969551
:10085000879597F90895EE0FFF1F0024001C0BBE2B
:100860000790F691E02D0994A29FB001B39FC001BB
:10087000A39F700D811D1124911DB29F700D811DCC
:100880001124911D08950F931F93CF93DF9382300E
:10089000910510F482E090E0E0910C02F0910D02DD
:1008A00020E030E0A0E0B0E0309719F140815181C4
:1008B0000281138148175907C8F08417950769F416
:1008C000109731F012960C93129713961C9327C031
:1008D00000930C0210930D0222C02115310519F06E
:1008E0004217530718F49A01BD01EF01DF01F80127
:1008F000DBCF21153105F9F0281B390B24303105E8
:1009000080F48A819B816115710521F0FB0193833D
:10091000828304C090930D0280930C02FE013296F4
:1009200044C0FE01E20FF31F8193919322503109DD
:10093000398328833AC020910A0230910B02232B7D
:1009400041F4209102023091030230930B02209374
:100950000A0220910002309101022115310541F473
:100960002DB73EB74091040250910502241B350B70
:10097000E0910A02F0910B02E217F307A0F42E1B9C
:100980003F0B2817390778F0AC014E5F5F4F2417F3
:10099000350748F04E0F5F1F50930B0240930A0239
:1009A0008193919302C0E0E0F0E0CF01DF91CF911D
:1009B0001F910F910895CF93DF93009709F481C0A1
:1009C000FC01329713821282A0910C02B0910D02A9
:1009D000109781F420813181820F931F20910A02A8
:1009E00030910B022817390751F5F0930B02E09371
:1009F0000A0267C0ED0120E030E0CE17DF0740F4C7
:100A00004A815B819E0141155105F1F0EA01F5CF64
:100A1000D383C28340815181840F951FC817D907A2
:100A200059F488819981840F951F02969183808360
:100A30008A819B81938382832115310529F4F09368
:100A40000D02E0930C023DC0E901FB83EA8349916A
:100A50005991C40FD51FEC17FD0761F48081918176
:100A6000840F951F0296E90199838883828193817F
:100A70009B838A83E0E0F0E012968D919C9113971E
:100A8000009719F0FD01DC01F7CF8D919C91119732
:100A90009D012E5F3F4F820F931F20910A023091DC
:100AA0000B022817390769F4309729F410920D02C8
:100AB00010920C0202C013821282B0930B02A09318
:0C0AC0000A02DF91CF910895F894FFCF57
:060ACC0000000E022000F4
:00000001FF
